{
  "_format": "hh-sol-artifact-1",
  "contractName": "MedicalRecords",
  "sourceName": "contracts/MedicalRecord.sol",
  "abi": [
    {
      "inputs": [
        {
          "internalType": "contract IWorldID",
          "name": "_worldId",
          "type": "address"
        },
        {
          "internalType": "string",
          "name": "_appId",
          "type": "string"
        },
        {
          "internalType": "string",
          "name": "_actionId",
          "type": "string"
        }
      ],
      "stateMutability": "nonpayable",
      "type": "constructor"
    },
    {
      "inputs": [],
      "name": "InvalidNullifier",
      "type": "error"
    },
    {
      "inputs": [
        {
          "internalType": "string",
          "name": "_userHash",
          "type": "string"
        },
        {
          "internalType": "string",
          "name": "_image",
          "type": "string"
        }
      ],
      "name": "addImage",
      "outputs": [],
      "stateMutability": "nonpayable",
      "type": "function"
    },
    {
      "inputs": [
        {
          "internalType": "string",
          "name": "_userHash",
          "type": "string"
        },
        {
          "internalType": "address",
          "name": "_newAddress",
          "type": "address"
        },
        {
          "internalType": "address",
          "name": "signal",
          "type": "address"
        },
        {
          "internalType": "uint256",
          "name": "root",
          "type": "uint256"
        },
        {
          "internalType": "uint256",
          "name": "nullifierHash",
          "type": "uint256"
        },
        {
          "internalType": "uint256[8]",
          "name": "proof",
          "type": "uint256[8]"
        }
      ],
      "name": "changeWallet",
      "outputs": [],
      "stateMutability": "nonpayable",
      "type": "function"
    },
    {
      "inputs": [
        {
          "internalType": "string",
          "name": "_userHash",
          "type": "string"
        },
        {
          "internalType": "string",
          "name": "_gender",
          "type": "string"
        },
        {
          "internalType": "string",
          "name": "_birthday",
          "type": "string"
        },
        {
          "internalType": "int256",
          "name": "_heightCM",
          "type": "int256"
        },
        {
          "internalType": "int256",
          "name": "_weightKG",
          "type": "int256"
        },
        {
          "internalType": "address",
          "name": "signal",
          "type": "address"
        },
        {
          "internalType": "uint256",
          "name": "root",
          "type": "uint256"
        },
        {
          "internalType": "uint256",
          "name": "nullifierHash",
          "type": "uint256"
        },
        {
          "internalType": "uint256[8]",
          "name": "proof",
          "type": "uint256[8]"
        }
      ],
      "name": "createRecord",
      "outputs": [],
      "stateMutability": "nonpayable",
      "type": "function"
    },
    {
      "inputs": [
        {
          "internalType": "string",
          "name": "_userHash",
          "type": "string"
        }
      ],
      "name": "getRecord",
      "outputs": [
        {
          "components": [
            {
              "internalType": "string",
              "name": "userHash",
              "type": "string"
            },
            {
              "internalType": "address",
              "name": "ownerWallet",
              "type": "address"
            },
            {
              "internalType": "string",
              "name": "gender",
              "type": "string"
            },
            {
              "internalType": "string",
              "name": "birthday",
              "type": "string"
            },
            {
              "internalType": "int256",
              "name": "heightCM",
              "type": "int256"
            },
            {
              "internalType": "int256",
              "name": "weightKG",
              "type": "int256"
            },
            {
              "internalType": "address[]",
              "name": "contributors",
              "type": "address[]"
            },
            {
              "internalType": "string",
              "name": "note",
              "type": "string"
            },
            {
              "internalType": "string[]",
              "name": "images",
              "type": "string[]"
            }
          ],
          "internalType": "struct MedicalRecords.Record",
          "name": "",
          "type": "tuple"
        }
      ],
      "stateMutability": "view",
      "type": "function"
    },
    {
      "inputs": [
        {
          "internalType": "string",
          "name": "_userHash",
          "type": "string"
        }
      ],
      "name": "hasRecord",
      "outputs": [
        {
          "internalType": "bool",
          "name": "",
          "type": "bool"
        }
      ],
      "stateMutability": "view",
      "type": "function"
    },
    {
      "inputs": [
        {
          "internalType": "string",
          "name": "_userHash",
          "type": "string"
        }
      ],
      "name": "isContributor",
      "outputs": [
        {
          "internalType": "bool",
          "name": "",
          "type": "bool"
        }
      ],
      "stateMutability": "view",
      "type": "function"
    },
    {
      "inputs": [
        {
          "internalType": "string",
          "name": "_userHash",
          "type": "string"
        }
      ],
      "name": "isOwner",
      "outputs": [
        {
          "internalType": "bool",
          "name": "",
          "type": "bool"
        }
      ],
      "stateMutability": "view",
      "type": "function"
    },
    {
      "inputs": [
        {
          "internalType": "string",
          "name": "_userHash",
          "type": "string"
        },
        {
          "internalType": "string",
          "name": "_gender",
          "type": "string"
        },
        {
          "internalType": "int256",
          "name": "_heightCM",
          "type": "int256"
        },
        {
          "internalType": "int256",
          "name": "_weightKG",
          "type": "int256"
        },
        {
          "internalType": "string",
          "name": "_note",
          "type": "string"
        }
      ],
      "name": "modifyRecord",
      "outputs": [],
      "stateMutability": "nonpayable",
      "type": "function"
    },
    {
      "inputs": [
        {
          "internalType": "string",
          "name": "_userHash",
          "type": "string"
        },
        {
          "internalType": "address[]",
          "name": "_contributors",
          "type": "address[]"
        }
      ],
      "name": "setContributors",
      "outputs": [],
      "stateMutability": "nonpayable",
      "type": "function"
    }
  ],
  "bytecode": "0x60e0604052600160c0523480156200001657600080fd5b5060405162001bbe38038062001bbe8339810160408190526200003991620001a8565b6001600160a01b038316608052604051620000979062000083906200006390859060200162000232565b604051602081830303815290604052620000a460201b62000e981760201c565b826040516020016200006392919062000250565b60a0525062000278915050565b6000600882604051602001620000bb919062000232565b60408051601f198184030181529190528051602090910120901c92915050565b634e487b7160e01b600052604160045260246000fd5b60005b838110156200010e578181015183820152602001620000f4565b50506000910152565b600082601f8301126200012957600080fd5b81516001600160401b0380821115620001465762000146620000db565b604051601f8301601f19908116603f01168101908282118183101715620001715762000171620000db565b816040528381528660208588010111156200018b57600080fd5b6200019e846020830160208901620000f1565b9695505050505050565b600080600060608486031215620001be57600080fd5b83516001600160a01b0381168114620001d657600080fd5b60208501519093506001600160401b0380821115620001f457600080fd5b620002028783880162000117565b935060408601519150808211156200021957600080fd5b50620002288682870162000117565b9150509250925092565b6000825162000246818460208701620000f1565b9190910192915050565b828152600082516200026a816020850160208701620000f1565b919091016020019392505050565b60805160a05160c051611901620002bd600039600081816106a901526109ae01526000818161070b01526109fc015260008181610679015261097e01526119016000f3fe608060405234801561001057600080fd5b50600436106100935760003560e01c80638eded32e116100665780638eded32e1461010c57806399dbfd621461011f578063a6eecd1814610132578063b85e943d14610145578063ce7794d81461015857600080fd5b806311dd8845146100985780632bac2ad7146100c157806377327dfe146100e45780637a6b73d1146100f9575b600080fd5b6100ab6100a63660046110ff565b61016b565b6040516100b89190611225565b60405180910390f35b6100d46100cf3660046110ff565b610583565b60405190151581526020016100b8565b6100f76100f2366004611344565b6105c3565b005b6100f76101073660046113c7565b6107e4565b6100f761011a366004611463565b6108bc565b6100d461012d3660046110ff565b610bba565b6100f7610140366004611535565b610cd1565b6100d46101533660046110ff565b610d3b565b6100f7610166366004611599565b610ddf565b610173610ecd565b8161017d81610bba565b6101a25760405162461bcd60e51b81526004016101999061166a565b60405180910390fd5b6001836040516101b291906116b3565b9081526020016040518091039020604051806101200160405290816000820180546101dc906116cf565b80601f0160208091040260200160405190810160405280929190818152602001828054610208906116cf565b80156102555780601f1061022a57610100808354040283529160200191610255565b820191906000526020600020905b81548152906001019060200180831161023857829003601f168201915b505050918352505060018201546001600160a01b03166020820152600282018054604090920191610285906116cf565b80601f01602080910402602001604051908101604052809291908181526020018280546102b1906116cf565b80156102fe5780601f106102d3576101008083540402835291602001916102fe565b820191906000526020600020905b8154815290600101906020018083116102e157829003601f168201915b50505050508152602001600382018054610317906116cf565b80601f0160208091040260200160405190810160405280929190818152602001828054610343906116cf565b80156103905780601f1061036557610100808354040283529160200191610390565b820191906000526020600020905b81548152906001019060200180831161037357829003601f168201915b5050505050815260200160048201548152602001600582015481526020016006820180548060200260200160405190810160405280929190818152602001828054801561040657602002820191906000526020600020905b81546001600160a01b031681526001909101906020018083116103e8575b5050505050815260200160078201805461041f906116cf565b80601f016020809104026020016040519081016040528092919081815260200182805461044b906116cf565b80156104985780601f1061046d57610100808354040283529160200191610498565b820191906000526020600020905b81548152906001019060200180831161047b57829003601f168201915b5050505050815260200160088201805480602002602001604051908101604052809291908181526020016000905b828210156105725783829060005260206000200180546104e5906116cf565b80601f0160208091040260200160405190810160405280929190818152602001828054610511906116cf565b801561055e5780601f106105335761010080835404028352916020019161055e565b820191906000526020600020905b81548152906001019060200180831161054157829003601f168201915b5050505050815260200190600101906104c6565b505050508152505091505b50919050565b6000806001600160a01b031660018360405161059f91906116b3565b908152604051908190036020019020600101546001600160a01b0316141592915050565b85336001600160a01b03166001826040516105de91906116b3565b908152604051908190036020019020600101546001600160a01b0316146106475760405162461bcd60e51b815260206004820152601e60248201527f43616c6c6572206973206e6f7420746865207265636f7264206f776e657200006044820152606401610199565b60008381526020819052604090205460ff161561067757604051632ec8265960e11b815260040160405180910390fd5b7f00000000000000000000000000000000000000000000000000000000000000006001600160a01b0316633bc778e3857f0000000000000000000000000000000000000000000000000000000000000000610708896040516020016106f4919060609190911b6bffffffffffffffffffffffff1916815260140190565b604051602081830303815290604052610e98565b877f0000000000000000000000000000000000000000000000000000000000000000886040518763ffffffff1660e01b815260040161074c96959493929190611703565b60006040518083038186803b15801561076457600080fd5b505afa158015610778573d6000803e3d6000fd5b50505060008481526020819052604090819020805460ff1916600190811790915590518892506107a9908a906116b3565b90815260405190819003602001902060010180546001600160a01b03929092166001600160a01b031990921691909117905550505050505050565b846107ee81610bba565b61080a5760405162461bcd60e51b81526004016101999061166a565b8460018760405161081b91906116b3565b90815260200160405180910390206002019081610838919061178a565b508360018760405161084a91906116b3565b9081526020016040518091039020600401819055508260018760405161087091906116b3565b9081526020016040518091039020600501819055508160018760405161089691906116b3565b908152602001604051809103902060070190816108b3919061178a565b50505050505050565b60006001600160a01b031660018a6040516108d791906116b3565b908152604051908190036020019020600101546001600160a01b03161461094c5760405162461bcd60e51b8152602060048201526024808201527f5265636f726420616c72656164792065786973747320666f7220746865206361604482015263363632b960e11b6064820152608401610199565b60008281526020819052604090205460ff161561097c57604051632ec8265960e11b815260040160405180910390fd5b7f00000000000000000000000000000000000000000000000000000000000000006001600160a01b0316633bc778e3847f00000000000000000000000000000000000000000000000000000000000000006109f9886040516020016106f4919060609190911b6bffffffffffffffffffffffff1916815260140190565b867f0000000000000000000000000000000000000000000000000000000000000000876040518763ffffffff1660e01b8152600401610a3d96959493929190611703565b60006040518083038186803b158015610a5557600080fd5b505afa158015610a69573d6000803e3d6000fd5b5050506000838152602081905260409020805460ff1916600117905550610a8e610ecd565b8981523360208083019190915260408083018b9052606083018a90526080830189905260a08301889052805191820181526000825260e0830191909152518190600190610adc908d906116b3565b90815260405190819003602001902081518190610af9908261178a565b5060208201516001820180546001600160a01b0319166001600160a01b0390921691909117905560408201516002820190610b34908261178a565b5060608201516003820190610b49908261178a565b506080820151600482015560a0820151600582015560c08201518051610b79916006840191602090910190610f22565b5060e08201516007820190610b8e908261178a565b506101008201518051610bab916008840191602090910190610f87565b50505050505050505050505050565b60008160006001600160a01b0316600182604051610bd891906116b3565b908152604051908190036020019020600101546001600160a01b031603610c115760405162461bcd60e51b81526004016101999061184a565b610c1a83610d3b565b15610c28576001915061057d565b60005b600184604051610c3b91906116b3565b90815260405190819003602001902060060154811015610cc757336001600160a01b0316600185604051610c6f91906116b3565b90815260200160405180910390206006018281548110610c9157610c9161188e565b6000918252602090912001546001600160a01b031603610cb557600192505061057d565b80610cbf816118a4565b915050610c2b565b5060009392505050565b81610cdb81610bba565b610cf75760405162461bcd60e51b81526004016101999061166a565b600183604051610d0791906116b3565b908152604051602091819003820190206008018054600181018255600091825291902001610d35838261178a565b50505050565b60008160006001600160a01b0316600182604051610d5991906116b3565b908152604051908190036020019020600101546001600160a01b031603610d925760405162461bcd60e51b81526004016101999061184a565b336001600160a01b0316600184604051610dac91906116b3565b908152604051908190036020019020600101546001600160a01b031603610dd6576001915061057d565b50600092915050565b81336001600160a01b0316600182604051610dfa91906116b3565b908152604051908190036020019020600101546001600160a01b031614610e635760405162461bcd60e51b815260206004820152601e60248201527f43616c6c6572206973206e6f7420746865207265636f7264206f776e657200006044820152606401610199565b81600184604051610e7491906116b3565b90815260200160405180910390206006019080519060200190610d35929190610f22565b6000600882604051602001610ead91906116b3565b60408051601f198184030181529190528051602090910120901c92915050565b6040518061012001604052806060815260200160006001600160a01b03168152602001606081526020016060815260200160008152602001600081526020016060815260200160608152602001606081525090565b828054828255906000526020600020908101928215610f77579160200282015b82811115610f7757825182546001600160a01b0319166001600160a01b03909116178255602090920191600190910190610f42565b50610f83929150610fd9565b5090565b828054828255906000526020600020908101928215610fcd579160200282015b82811115610fcd5782518290610fbd908261178a565b5091602001919060010190610fa7565b50610f83929150610fee565b5b80821115610f835760008155600101610fda565b80821115610f83576000611002828261100b565b50600101610fee565b508054611017906116cf565b6000825580601f10611027575050565b601f0160209004906000526020600020908101906110459190610fd9565b50565b634e487b7160e01b600052604160045260246000fd5b604051601f8201601f1916810167ffffffffffffffff8111828210171561108757611087611048565b604052919050565b600082601f8301126110a057600080fd5b813567ffffffffffffffff8111156110ba576110ba611048565b6110cd601f8201601f191660200161105e565b8181528460208386010111156110e257600080fd5b816020850160208301376000918101602001919091529392505050565b60006020828403121561111157600080fd5b813567ffffffffffffffff81111561112857600080fd5b6111348482850161108f565b949350505050565b60005b8381101561115757818101518382015260200161113f565b50506000910152565b6000815180845261117881602086016020860161113c565b601f01601f19169290920160200192915050565b600081518084526020808501945080840160005b838110156111c55781516001600160a01b0316875295820195908201906001016111a0565b509495945050505050565b600081518084526020808501808196508360051b8101915082860160005b85811015611218578284038952611206848351611160565b988501989350908401906001016111ee565b5091979650505050505050565b6020815260008251610120806020850152611244610140850183611160565b9150602085015161126060408601826001600160a01b03169052565b506040850151601f198086850301606087015261127d8483611160565b9350606087015191508086850301608087015261129a8483611160565b9350608087015160a087015260a087015160c087015260c08701519150808685030160e08701526112cb848361118c565b935060e087015191506101008187860301818801526112ea8584611160565b90880151878203909201848801529350905061130683826111d0565b9695505050505050565b80356001600160a01b038116811461132757600080fd5b919050565b80610100810183101561133e57600080fd5b92915050565b6000806000806000806101a0878903121561135e57600080fd5b863567ffffffffffffffff81111561137557600080fd5b61138189828a0161108f565b96505061139060208801611310565b945061139e60408801611310565b935060608701359250608087013591506113bb8860a0890161132c565b90509295509295509295565b600080600080600060a086880312156113df57600080fd5b853567ffffffffffffffff808211156113f757600080fd5b61140389838a0161108f565b9650602088013591508082111561141957600080fd5b61142589838a0161108f565b95506040880135945060608801359350608088013591508082111561144957600080fd5b506114568882890161108f565b9150509295509295909350565b60008060008060008060008060006102008a8c03121561148257600080fd5b893567ffffffffffffffff8082111561149a57600080fd5b6114a68d838e0161108f565b9a5060208c01359150808211156114bc57600080fd5b6114c88d838e0161108f565b995060408c01359150808211156114de57600080fd5b506114eb8c828d0161108f565b97505060608a0135955060808a0135945061150860a08b01611310565b935060c08a0135925060e08a013591506115268b6101008c0161132c565b90509295985092959850929598565b6000806040838503121561154857600080fd5b823567ffffffffffffffff8082111561156057600080fd5b61156c8683870161108f565b9350602085013591508082111561158257600080fd5b5061158f8582860161108f565b9150509250929050565b600080604083850312156115ac57600080fd5b823567ffffffffffffffff808211156115c457600080fd5b6115d08683870161108f565b93506020915081850135818111156115e757600080fd5b8501601f810187136115f857600080fd5b80358281111561160a5761160a611048565b8060051b925061161b84840161105e565b818152928201840192848101908985111561163557600080fd5b928501925b8484101561165a5761164b84611310565b8252928501929085019061163a565b8096505050505050509250929050565b60208082526029908201527f43616c6c6572206973206e6f74206120636f6e7472696275746f72206f6620746040820152681a19481c9958dbdc9960ba1b606082015260800190565b600082516116c581846020870161113c565b9190910192915050565b600181811c908216806116e357607f821691505b60208210810361057d57634e487b7160e01b600052602260045260246000fd5b60006101a0820190508782528660208301528560408301528460608301528360808301526101008360a0840137979650505050505050565b601f82111561178557600081815260208120601f850160051c810160208610156117625750805b601f850160051c820191505b818110156117815782815560010161176e565b5050505b505050565b815167ffffffffffffffff8111156117a4576117a4611048565b6117b8816117b284546116cf565b8461173b565b602080601f8311600181146117ed57600084156117d55750858301515b600019600386901b1c1916600185901b178555611781565b600085815260208120601f198616915b8281101561181c578886015182559484019460019091019084016117fd565b508582101561183a5787850151600019600388901b60f8161c191681555b5050505050600190811b01905550565b60208082526024908201527f5265636f726420646f6573206e6f7420657869737420666f72207468652077616040820152631b1b195d60e21b606082015260800190565b634e487b7160e01b600052603260045260246000fd5b6000600182016118c457634e487b7160e01b600052601160045260246000fd5b506001019056fea2646970667358221220c545c54344f49d1998a68b23fa3e8e411f7a659374bef6e741b90eb735063afb64736f6c63430008110033",
  "linkReferences": {},
  "deployedLinkReferences": {}
}