{
  "_format": "hh-sol-artifact-1",
  "contractName": "MedicalRecords",
  "sourceName": "contracts/MedicalRecord.sol",
  "abi": [
    {
      "inputs": [],
      "stateMutability": "nonpayable",
      "type": "constructor"
    },
    {
      "inputs": [
        {
          "internalType": "string",
          "name": "_worldId",
          "type": "string"
        },
        {
          "internalType": "string",
          "name": "_image",
          "type": "string"
        }
      ],
      "name": "addImage",
      "outputs": [],
      "stateMutability": "nonpayable",
      "type": "function"
    },
    {
      "inputs": [
        {
          "internalType": "string",
          "name": "_worldId",
          "type": "string"
        },
        {
          "internalType": "address",
          "name": "_newAddress",
          "type": "address"
        }
      ],
      "name": "changeWallet",
      "outputs": [],
      "stateMutability": "nonpayable",
      "type": "function"
    },
    {
      "inputs": [
        {
          "internalType": "string",
          "name": "_worldId",
          "type": "string"
        },
        {
          "internalType": "string",
          "name": "_gender",
          "type": "string"
        },
        {
          "internalType": "string",
          "name": "_birthday",
          "type": "string"
        },
        {
          "internalType": "int256",
          "name": "_heightCM",
          "type": "int256"
        },
        {
          "internalType": "int256",
          "name": "_weightKG",
          "type": "int256"
        }
      ],
      "name": "createRecord",
      "outputs": [],
      "stateMutability": "nonpayable",
      "type": "function"
    },
    {
      "inputs": [
        {
          "internalType": "string",
          "name": "_worldId",
          "type": "string"
        }
      ],
      "name": "getRecord",
      "outputs": [
        {
          "components": [
            {
              "internalType": "string",
              "name": "worldId",
              "type": "string"
            },
            {
              "internalType": "address",
              "name": "ownerWallet",
              "type": "address"
            },
            {
              "internalType": "string",
              "name": "gender",
              "type": "string"
            },
            {
              "internalType": "string",
              "name": "birthday",
              "type": "string"
            },
            {
              "internalType": "int256",
              "name": "heightCM",
              "type": "int256"
            },
            {
              "internalType": "int256",
              "name": "weightKG",
              "type": "int256"
            },
            {
              "internalType": "address[]",
              "name": "contributors",
              "type": "address[]"
            },
            {
              "internalType": "string",
              "name": "note",
              "type": "string"
            },
            {
              "internalType": "string[]",
              "name": "images",
              "type": "string[]"
            }
          ],
          "internalType": "struct MedicalRecords.Record",
          "name": "",
          "type": "tuple"
        }
      ],
      "stateMutability": "view",
      "type": "function"
    },
    {
      "inputs": [
        {
          "internalType": "string",
          "name": "_worldId",
          "type": "string"
        }
      ],
      "name": "hasRecord",
      "outputs": [
        {
          "internalType": "bool",
          "name": "",
          "type": "bool"
        }
      ],
      "stateMutability": "view",
      "type": "function"
    },
    {
      "inputs": [
        {
          "internalType": "string",
          "name": "_worldId",
          "type": "string"
        }
      ],
      "name": "isContributor",
      "outputs": [
        {
          "internalType": "bool",
          "name": "",
          "type": "bool"
        }
      ],
      "stateMutability": "view",
      "type": "function"
    },
    {
      "inputs": [
        {
          "internalType": "string",
          "name": "_worldId",
          "type": "string"
        }
      ],
      "name": "isOwner",
      "outputs": [
        {
          "internalType": "bool",
          "name": "",
          "type": "bool"
        }
      ],
      "stateMutability": "view",
      "type": "function"
    },
    {
      "inputs": [
        {
          "internalType": "string",
          "name": "_worldId",
          "type": "string"
        },
        {
          "internalType": "string",
          "name": "_gender",
          "type": "string"
        },
        {
          "internalType": "int256",
          "name": "_heightCM",
          "type": "int256"
        },
        {
          "internalType": "int256",
          "name": "_weightKG",
          "type": "int256"
        },
        {
          "internalType": "string",
          "name": "_note",
          "type": "string"
        }
      ],
      "name": "modifyRecord",
      "outputs": [],
      "stateMutability": "nonpayable",
      "type": "function"
    },
    {
      "inputs": [
        {
          "internalType": "string",
          "name": "_worldId",
          "type": "string"
        },
        {
          "internalType": "address[]",
          "name": "_contributors",
          "type": "address[]"
        }
      ],
      "name": "setContributors",
      "outputs": [],
      "stateMutability": "nonpayable",
      "type": "function"
    }
  ],
  "bytecode": "0x608060405234801561001057600080fd5b5061157e806100206000396000f3fe608060405234801561001057600080fd5b50600436106100935760003560e01c806387a858d21161006657806387a858d21461010c57806399dbfd621461011f578063a6eecd1814610132578063b85e943d14610145578063ce7794d81461015857600080fd5b806311dd8845146100985780632bac2ad7146100c15780633e6a98b2146100e45780637a6b73d1146100f9575b600080fd5b6100ab6100a6366004610e36565b61016b565b6040516100b89190610f5f565b60405180910390f35b6100d46100cf366004610e36565b610583565b60405190151581526020016100b8565b6100f76100f236600461104a565b6105c3565b005b6100f76101073660046110e4565b610782565b6100f761011a36600461119c565b61085a565b6100d461012d366004610e36565b610926565b6100f76101403660046111ea565b610a3d565b6100d4610153366004610e36565b610aa7565b6100f761016636600461124e565b610b4b565b610173610c04565b8161017d81610926565b6101a25760405162461bcd60e51b81526004016101999061131f565b60405180910390fd5b6000836040516101b29190611368565b9081526020016040518091039020604051806101200160405290816000820180546101dc90611384565b80601f016020809104026020016040519081016040528092919081815260200182805461020890611384565b80156102555780601f1061022a57610100808354040283529160200191610255565b820191906000526020600020905b81548152906001019060200180831161023857829003601f168201915b505050918352505060018201546001600160a01b0316602082015260028201805460409092019161028590611384565b80601f01602080910402602001604051908101604052809291908181526020018280546102b190611384565b80156102fe5780601f106102d3576101008083540402835291602001916102fe565b820191906000526020600020905b8154815290600101906020018083116102e157829003601f168201915b5050505050815260200160038201805461031790611384565b80601f016020809104026020016040519081016040528092919081815260200182805461034390611384565b80156103905780601f1061036557610100808354040283529160200191610390565b820191906000526020600020905b81548152906001019060200180831161037357829003601f168201915b5050505050815260200160048201548152602001600582015481526020016006820180548060200260200160405190810160405280929190818152602001828054801561040657602002820191906000526020600020905b81546001600160a01b031681526001909101906020018083116103e8575b5050505050815260200160078201805461041f90611384565b80601f016020809104026020016040519081016040528092919081815260200182805461044b90611384565b80156104985780601f1061046d57610100808354040283529160200191610498565b820191906000526020600020905b81548152906001019060200180831161047b57829003601f168201915b5050505050815260200160088201805480602002602001604051908101604052809291908181526020016000905b828210156105725783829060005260206000200180546104e590611384565b80601f016020809104026020016040519081016040528092919081815260200182805461051190611384565b801561055e5780601f106105335761010080835404028352916020019161055e565b820191906000526020600020905b81548152906001019060200180831161054157829003601f168201915b5050505050815260200190600101906104c6565b505050508152505091505b50919050565b6000806001600160a01b031660008360405161059f9190611368565b908152604051908190036020019020600101546001600160a01b0316141592915050565b60006001600160a01b03166000866040516105de9190611368565b908152604051908190036020019020600101546001600160a01b0316146106535760405162461bcd60e51b8152602060048201526024808201527f5265636f726420616c72656164792065786973747320666f7220746865206361604482015263363632b960e11b6064820152608401610199565b61065b610c04565b858152336020808301919091526040808301879052606083018690526080830185905260a0830184905280519182018152600080835260e0840192909252518291906106a8908990611368565b908152604051908190036020019020815181906106c59082611407565b5060208201516001820180546001600160a01b0319166001600160a01b03909216919091179055604082015160028201906107009082611407565b50606082015160038201906107159082611407565b506080820151600482015560a0820151600582015560c08201518051610745916006840191602090910190610c59565b5060e0820151600782019061075a9082611407565b506101008201518051610777916008840191602090910190610cbe565b505050505050505050565b8461078c81610926565b6107a85760405162461bcd60e51b81526004016101999061131f565b846000876040516107b99190611368565b908152602001604051809103902060020190816107d69190611407565b50836000876040516107e89190611368565b9081526020016040518091039020600401819055508260008760405161080e9190611368565b908152602001604051809103902060050181905550816000876040516108349190611368565b908152602001604051809103902060070190816108519190611407565b50505050505050565b81336001600160a01b03166000826040516108759190611368565b908152604051908190036020019020600101546001600160a01b0316146108de5760405162461bcd60e51b815260206004820152601e60248201527f43616c6c6572206973206e6f7420746865207265636f7264206f776e657200006044820152606401610199565b816000846040516108ef9190611368565b90815260405190819003602001902060010180546001600160a01b03929092166001600160a01b0319909216919091179055505050565b60008160006001600160a01b03166000826040516109449190611368565b908152604051908190036020019020600101546001600160a01b03160361097d5760405162461bcd60e51b8152600401610199906114c7565b61098683610aa7565b15610994576001915061057d565b60005b6000846040516109a79190611368565b90815260405190819003602001902060060154811015610a3357336001600160a01b03166000856040516109db9190611368565b908152602001604051809103902060060182815481106109fd576109fd61150b565b6000918252602090912001546001600160a01b031603610a2157600192505061057d565b80610a2b81611521565b915050610997565b5060009392505050565b81610a4781610926565b610a635760405162461bcd60e51b81526004016101999061131f565b600083604051610a739190611368565b908152604051602091819003820190206008018054600181018255600091825291902001610aa18382611407565b50505050565b60008160006001600160a01b0316600082604051610ac59190611368565b908152604051908190036020019020600101546001600160a01b031603610afe5760405162461bcd60e51b8152600401610199906114c7565b336001600160a01b0316600084604051610b189190611368565b908152604051908190036020019020600101546001600160a01b031603610b42576001915061057d565b50600092915050565b81336001600160a01b0316600082604051610b669190611368565b908152604051908190036020019020600101546001600160a01b031614610bcf5760405162461bcd60e51b815260206004820152601e60248201527f43616c6c6572206973206e6f7420746865207265636f7264206f776e657200006044820152606401610199565b81600084604051610be09190611368565b90815260200160405180910390206006019080519060200190610aa1929190610c59565b6040518061012001604052806060815260200160006001600160a01b03168152602001606081526020016060815260200160008152602001600081526020016060815260200160608152602001606081525090565b828054828255906000526020600020908101928215610cae579160200282015b82811115610cae57825182546001600160a01b0319166001600160a01b03909116178255602090920191600190910190610c79565b50610cba929150610d10565b5090565b828054828255906000526020600020908101928215610d04579160200282015b82811115610d045782518290610cf49082611407565b5091602001919060010190610cde565b50610cba929150610d25565b5b80821115610cba5760008155600101610d11565b80821115610cba576000610d398282610d42565b50600101610d25565b508054610d4e90611384565b6000825580601f10610d5e575050565b601f016020900490600052602060002090810190610d7c9190610d10565b50565b634e487b7160e01b600052604160045260246000fd5b604051601f8201601f1916810167ffffffffffffffff81118282101715610dbe57610dbe610d7f565b604052919050565b600082601f830112610dd757600080fd5b813567ffffffffffffffff811115610df157610df1610d7f565b610e04601f8201601f1916602001610d95565b818152846020838601011115610e1957600080fd5b816020850160208301376000918101602001919091529392505050565b600060208284031215610e4857600080fd5b813567ffffffffffffffff811115610e5f57600080fd5b610e6b84828501610dc6565b949350505050565b60005b83811015610e8e578181015183820152602001610e76565b50506000910152565b60008151808452610eaf816020860160208601610e73565b601f01601f19169290920160200192915050565b600081518084526020808501945080840160005b83811015610efc5781516001600160a01b031687529582019590820190600101610ed7565b509495945050505050565b600082825180855260208086019550808260051b84010181860160005b84811015610f5257601f19868403018952610f40838351610e97565b98840198925090830190600101610f24565b5090979650505050505050565b6020815260008251610120806020850152610f7e610140850183610e97565b91506020850151610f9a60408601826001600160a01b03169052565b506040850151601f1980868503016060870152610fb78483610e97565b93506060870151915080868503016080870152610fd48483610e97565b9350608087015160a087015260a087015160c087015260c08701519150808685030160e08701526110058483610ec3565b935060e087015191506101008187860301818801526110248584610e97565b9088015187820390920184880152935090506110408382610f07565b9695505050505050565b600080600080600060a0868803121561106257600080fd5b853567ffffffffffffffff8082111561107a57600080fd5b61108689838a01610dc6565b9650602088013591508082111561109c57600080fd5b6110a889838a01610dc6565b955060408801359150808211156110be57600080fd5b506110cb88828901610dc6565b9598949750949560608101359550608001359392505050565b600080600080600060a086880312156110fc57600080fd5b853567ffffffffffffffff8082111561111457600080fd5b61112089838a01610dc6565b9650602088013591508082111561113657600080fd5b61114289838a01610dc6565b95506040880135945060608801359350608088013591508082111561116657600080fd5b5061117388828901610dc6565b9150509295509295909350565b80356001600160a01b038116811461119757600080fd5b919050565b600080604083850312156111af57600080fd5b823567ffffffffffffffff8111156111c657600080fd5b6111d285828601610dc6565b9250506111e160208401611180565b90509250929050565b600080604083850312156111fd57600080fd5b823567ffffffffffffffff8082111561121557600080fd5b61122186838701610dc6565b9350602085013591508082111561123757600080fd5b5061124485828601610dc6565b9150509250929050565b6000806040838503121561126157600080fd5b823567ffffffffffffffff8082111561127957600080fd5b61128586838701610dc6565b935060209150818501358181111561129c57600080fd5b8501601f810187136112ad57600080fd5b8035828111156112bf576112bf610d7f565b8060051b92506112d0848401610d95565b81815292820184019284810190898511156112ea57600080fd5b928501925b8484101561130f5761130084611180565b825292850192908501906112ef565b8096505050505050509250929050565b60208082526029908201527f43616c6c6572206973206e6f74206120636f6e7472696275746f72206f6620746040820152681a19481c9958dbdc9960ba1b606082015260800190565b6000825161137a818460208701610e73565b9190910192915050565b600181811c9082168061139857607f821691505b60208210810361057d57634e487b7160e01b600052602260045260246000fd5b601f82111561140257600081815260208120601f850160051c810160208610156113df5750805b601f850160051c820191505b818110156113fe578281556001016113eb565b5050505b505050565b815167ffffffffffffffff81111561142157611421610d7f565b6114358161142f8454611384565b846113b8565b602080601f83116001811461146a57600084156114525750858301515b600019600386901b1c1916600185901b1785556113fe565b600085815260208120601f198616915b828110156114995788860151825594840194600190910190840161147a565b50858210156114b75787850151600019600388901b60f8161c191681555b5050505050600190811b01905550565b60208082526024908201527f5265636f726420646f6573206e6f7420657869737420666f72207468652077616040820152631b1b195d60e21b606082015260800190565b634e487b7160e01b600052603260045260246000fd5b60006001820161154157634e487b7160e01b600052601160045260246000fd5b506001019056fea264697066735822122010b3e6cca4957385c62e7fab97d81cfa005f5fb36128ffbaa26333db0cbd4d9764736f6c63430008110033",
  "linkReferences": {},
  "deployedLinkReferences": {}
}