{
  "_format": "hh-sol-artifact-1",
  "contractName": "MedicalRecords",
  "sourceName": "contracts/MedicalRecord.sol",
  "abi": [
    {
      "inputs": [
        {
          "internalType": "contract IWorldID",
          "name": "_worldId",
          "type": "address"
        },
        {
          "internalType": "string",
          "name": "_appId",
          "type": "string"
        },
        {
          "internalType": "string",
          "name": "_actionId",
          "type": "string"
        }
      ],
      "stateMutability": "nonpayable",
      "type": "constructor"
    },
    {
      "inputs": [],
      "name": "InvalidNullifier",
      "type": "error"
    },
    {
      "inputs": [
        {
          "internalType": "uint256",
          "name": "_userHash",
          "type": "uint256"
        },
        {
          "internalType": "string",
          "name": "_image",
          "type": "string"
        }
      ],
      "name": "addImage",
      "outputs": [],
      "stateMutability": "nonpayable",
      "type": "function"
    },
    {
      "inputs": [
        {
          "internalType": "uint256",
          "name": "_userHash",
          "type": "uint256"
        },
        {
          "internalType": "address",
          "name": "_newAddress",
          "type": "address"
        },
        {
          "internalType": "address",
          "name": "_signal",
          "type": "address"
        },
        {
          "internalType": "uint256",
          "name": "_root",
          "type": "uint256"
        },
        {
          "internalType": "uint256[8]",
          "name": "proof",
          "type": "uint256[8]"
        }
      ],
      "name": "changeWallet",
      "outputs": [],
      "stateMutability": "nonpayable",
      "type": "function"
    },
    {
      "inputs": [
        {
          "internalType": "uint256",
          "name": "_userHash",
          "type": "uint256"
        },
        {
          "internalType": "string",
          "name": "_gender",
          "type": "string"
        },
        {
          "internalType": "string",
          "name": "_birthday",
          "type": "string"
        },
        {
          "internalType": "uint256",
          "name": "_heightCM",
          "type": "uint256"
        },
        {
          "internalType": "uint256",
          "name": "_weightKG",
          "type": "uint256"
        },
        {
          "internalType": "address",
          "name": "_signal",
          "type": "address"
        },
        {
          "internalType": "uint256",
          "name": "_root",
          "type": "uint256"
        },
        {
          "internalType": "uint256[8]",
          "name": "_proof",
          "type": "uint256[8]"
        }
      ],
      "name": "createRecord",
      "outputs": [],
      "stateMutability": "nonpayable",
      "type": "function"
    },
    {
      "inputs": [
        {
          "internalType": "uint256",
          "name": "_userHash",
          "type": "uint256"
        }
      ],
      "name": "getRecord",
      "outputs": [
        {
          "components": [
            {
              "internalType": "uint256",
              "name": "userHash",
              "type": "uint256"
            },
            {
              "internalType": "address",
              "name": "ownerWallet",
              "type": "address"
            },
            {
              "internalType": "string",
              "name": "gender",
              "type": "string"
            },
            {
              "internalType": "string",
              "name": "birthday",
              "type": "string"
            },
            {
              "internalType": "uint256",
              "name": "heightCM",
              "type": "uint256"
            },
            {
              "internalType": "uint256",
              "name": "weightKG",
              "type": "uint256"
            },
            {
              "internalType": "address[]",
              "name": "contributors",
              "type": "address[]"
            },
            {
              "internalType": "string",
              "name": "note",
              "type": "string"
            },
            {
              "internalType": "string[]",
              "name": "images",
              "type": "string[]"
            }
          ],
          "internalType": "struct MedicalRecords.record",
          "name": "",
          "type": "tuple"
        }
      ],
      "stateMutability": "view",
      "type": "function"
    },
    {
      "inputs": [
        {
          "internalType": "uint256",
          "name": "_userHash",
          "type": "uint256"
        }
      ],
      "name": "hasRecord",
      "outputs": [
        {
          "internalType": "bool",
          "name": "",
          "type": "bool"
        }
      ],
      "stateMutability": "view",
      "type": "function"
    },
    {
      "inputs": [
        {
          "internalType": "uint256",
          "name": "_userHash",
          "type": "uint256"
        }
      ],
      "name": "isContributor",
      "outputs": [
        {
          "internalType": "bool",
          "name": "",
          "type": "bool"
        }
      ],
      "stateMutability": "view",
      "type": "function"
    },
    {
      "inputs": [
        {
          "internalType": "uint256",
          "name": "_userHash",
          "type": "uint256"
        }
      ],
      "name": "isOwner",
      "outputs": [
        {
          "internalType": "bool",
          "name": "",
          "type": "bool"
        }
      ],
      "stateMutability": "view",
      "type": "function"
    },
    {
      "inputs": [
        {
          "internalType": "uint256",
          "name": "_userHash",
          "type": "uint256"
        },
        {
          "internalType": "string",
          "name": "_gender",
          "type": "string"
        },
        {
          "internalType": "uint256",
          "name": "_heightCM",
          "type": "uint256"
        },
        {
          "internalType": "uint256",
          "name": "_weightKG",
          "type": "uint256"
        },
        {
          "internalType": "string",
          "name": "_note",
          "type": "string"
        }
      ],
      "name": "modifyRecord",
      "outputs": [],
      "stateMutability": "nonpayable",
      "type": "function"
    },
    {
      "inputs": [
        {
          "internalType": "uint256",
          "name": "_userHash",
          "type": "uint256"
        },
        {
          "internalType": "address[]",
          "name": "_contributors",
          "type": "address[]"
        }
      ],
      "name": "setContributors",
      "outputs": [],
      "stateMutability": "nonpayable",
      "type": "function"
    },
    {
      "inputs": [
        {
          "internalType": "uint256",
          "name": "_userHash",
          "type": "uint256"
        },
        {
          "internalType": "address",
          "name": "_signal",
          "type": "address"
        },
        {
          "internalType": "uint256",
          "name": "_root",
          "type": "uint256"
        },
        {
          "internalType": "uint256[8]",
          "name": "_proof",
          "type": "uint256[8]"
        }
      ],
      "name": "worldCoinAuth",
      "outputs": [],
      "stateMutability": "view",
      "type": "function"
    }
  ],
  "bytecode": "0x60e0604052600160c0523480156200001657600080fd5b506040516200175a3803806200175a8339810160408190526200003991620001a8565b6001600160a01b038316608052604051620000979062000083906200006390859060200162000232565b604051602081830303815290604052620000a460201b62000ad41760201c565b826040516020016200006392919062000250565b60a0525062000278915050565b6000600882604051602001620000bb919062000232565b60408051601f198184030181529190528051602090910120901c92915050565b634e487b7160e01b600052604160045260246000fd5b60005b838110156200010e578181015183820152602001620000f4565b50506000910152565b600082601f8301126200012957600080fd5b81516001600160401b0380821115620001465762000146620000db565b604051601f8301601f19908116603f01168101908282118183101715620001715762000171620000db565b816040528381528660208588010111156200018b57600080fd5b6200019e846020830160208901620000f1565b9695505050505050565b600080600060608486031215620001be57600080fd5b83516001600160a01b0381168114620001d657600080fd5b60208501519093506001600160401b0380821115620001f457600080fd5b620002028783880162000117565b935060408601519150808211156200021957600080fd5b50620002288682870162000117565b9150509250925092565b6000825162000246818460208701620000f1565b9190910192915050565b828152600082516200026a816020850160208701620000f1565b919091016020019392505050565b60805160a05160c0516114b2620002a86000396000610871015260006108d30152600061084101526114b26000f3fe608060405234801561001057600080fd5b506004361061009e5760003560e01c80639b87c11f116100665780639b87c11f14610146578063a2510be114610159578063ab2258a21461016c578063e5c1bfdf1461017f578063ecb2715b1461019257600080fd5b806303e9e609146100a35780631d599b7f146100cc57806339c7639c1461010b57806378c7a4591461011e578063884b562614610133575b600080fd5b6100b66100b1366004610c84565b6101a5565b6040516100c39190610d89565b60405180910390f35b6100fb6100da366004610c84565b600090815260016020819052604090912001546001600160a01b0316151590565b60405190151581526020016100c3565b6100fb610119366004610c84565b6104f2565b61013161012c366004610f4c565b61056c565b005b610131610141366004610ff9565b6106f9565b6100fb610154366004610c84565b61076d565b61013161016736600461107a565b61083f565b61013161017a3660046110c2565b61094a565b61013161018d366004611109565b6109a0565b6101316101a0366004611162565b610a43565b6101ad610b09565b60008281526001602081815260409283902083516101208101855281548152928101546001600160a01b03169183019190915260028101805492939192918401916101f79061121b565b80601f01602080910402602001604051908101604052809291908181526020018280546102239061121b565b80156102705780601f1061024557610100808354040283529160200191610270565b820191906000526020600020905b81548152906001019060200180831161025357829003601f168201915b505050505081526020016003820180546102899061121b565b80601f01602080910402602001604051908101604052809291908181526020018280546102b59061121b565b80156103025780601f106102d757610100808354040283529160200191610302565b820191906000526020600020905b8154815290600101906020018083116102e557829003601f168201915b5050505050815260200160048201548152602001600582015481526020016006820180548060200260200160405190810160405280929190818152602001828054801561037857602002820191906000526020600020905b81546001600160a01b0316815260019091019060200180831161035a575b505050505081526020016007820180546103919061121b565b80601f01602080910402602001604051908101604052809291908181526020018280546103bd9061121b565b801561040a5780601f106103df5761010080835404028352916020019161040a565b820191906000526020600020905b8154815290600101906020018083116103ed57829003601f168201915b5050505050815260200160088201805480602002602001604051908101604052809291908181526020016000905b828210156104e45783829060005260206000200180546104579061121b565b80601f01602080910402602001604051908101604052809291908181526020018280546104839061121b565b80156104d05780601f106104a5576101008083540402835291602001916104d0565b820191906000526020600020905b8154815290600101906020018083116104b357829003601f168201915b505050505081526020019060010190610438565b505050915250909392505050565b60008181526001602081905260408220015482906001600160a01b03166105345760405162461bcd60e51b815260040161052b9061124f565b60405180910390fd5b60008381526001602081905260409091200154336001600160a01b03909116036105615760019150610566565b600091505b50919050565b6000888152600160208190526040909120015433906001600160a01b0316156105e35760405162461bcd60e51b8152602060048201526024808201527f7265636f726420616c72656164792065786973747320666f7220746865206361604482015263363632b960e11b606482015260840161052b565b6105eb610b09565b8981526001600160a01b03828116602080840191825260408085018d8152606086018d9052608086018c905260a086018b905281518084018352600080825260e08801919091528f81526001938490529190912085518155925191830180546001600160a01b03191692909416919091179092559051829190600282019061067390826112e2565b506060820151600382019061068890826112e2565b506080820151600482015560a0820151600582015560c082015180516106b8916006840191602090910190610b5e565b5060e082015160078201906106cd90826112e2565b5061010082015180516106ea916008840191602090910190610bc3565b50505050505050505050505050565b846107038161076d565b61071f5760405162461bcd60e51b815260040161052b906113a2565b600086815260016020526040902060020161073a86826112e2565b506000868152600160205260409020600481018590556005810184905560070161076483826112e2565b50505050505050565b60008181526001602081905260408220015482906001600160a01b03166107a65760405162461bcd60e51b815260040161052b9061124f565b6107af836104f2565b156107bd5760019150610566565b60005b6000848152600160205260409020600601548110156108355760008481526001602052604090206006018054339190839081106107ff576107ff6113eb565b6000918252602090912001546001600160a01b031603610823576001925050610566565b8061082d81611401565b9150506107c0565b5060009392505050565b7f00000000000000000000000000000000000000000000000000000000000000006001600160a01b0316633bc778e3837f00000000000000000000000000000000000000000000000000000000000000006108d0876040516020016108bc919060609190911b6bffffffffffffffffffffffff1916815260140190565b604051602081830303815290604052610ad4565b887f0000000000000000000000000000000000000000000000000000000000000000876040518763ffffffff1660e01b815260040161091496959493929190611428565b60006040518083038186803b15801561092c57600080fd5b505afa158015610940573d6000803e3d6000fd5b5050505050505050565b816109548161076d565b6109705760405162461bcd60e51b815260040161052b906113a2565b600083815260016020818152604083206008018054928301815583529091200161099a83826112e2565b50505050565b6000858152600160208190526040909120015485906001600160a01b03163314610a0c5760405162461bcd60e51b815260206004820152601e60248201527f43616c6c6572206973206e6f7420746865207265636f7264206f776e65720000604482015260640161052b565b50505060009283525060016020819052604090922090910180546001600160a01b0319166001600160a01b03909216919091179055565b6000828152600160208190526040909120015482906001600160a01b03163314610aaf5760405162461bcd60e51b815260206004820152601e60248201527f43616c6c6572206973206e6f7420746865207265636f7264206f776e65720000604482015260640161052b565b6000838152600160209081526040909120835161099a92600690920191850190610b5e565b6000600882604051602001610ae99190611460565b60408051601f198184030181529190528051602090910120901c92915050565b6040518061012001604052806000815260200160006001600160a01b03168152602001606081526020016060815260200160008152602001600081526020016060815260200160608152602001606081525090565b828054828255906000526020600020908101928215610bb3579160200282015b82811115610bb357825182546001600160a01b0319166001600160a01b03909116178255602090920191600190910190610b7e565b50610bbf929150610c15565b5090565b828054828255906000526020600020908101928215610c09579160200282015b82811115610c095782518290610bf990826112e2565b5091602001919060010190610be3565b50610bbf929150610c2a565b5b80821115610bbf5760008155600101610c16565b80821115610bbf576000610c3e8282610c47565b50600101610c2a565b508054610c539061121b565b6000825580601f10610c63575050565b601f016020900490600052602060002090810190610c819190610c15565b50565b600060208284031215610c9657600080fd5b5035919050565b60005b83811015610cb8578181015183820152602001610ca0565b50506000910152565b60008151808452610cd9816020860160208601610c9d565b601f01601f19169290920160200192915050565b600081518084526020808501945080840160005b83811015610d265781516001600160a01b031687529582019590820190600101610d01565b509495945050505050565b600082825180855260208086019550808260051b84010181860160005b84811015610d7c57601f19868403018952610d6a838351610cc1565b98840198925090830190600101610d4e565b5090979650505050505050565b602081528151602082015260006020830151610db060408401826001600160a01b03169052565b506040830151610120806060850152610dcd610140850183610cc1565b91506060850151601f1980868503016080870152610deb8483610cc1565b9350608087015160a087015260a087015160c087015260c08701519150808685030160e0870152610e1c8483610ced565b935060e08701519150610100818786030181880152610e3b8584610cc1565b908801518782039092018488015293509050610e578382610d31565b9695505050505050565b634e487b7160e01b600052604160045260246000fd5b604051601f8201601f1916810167ffffffffffffffff81118282101715610ea057610ea0610e61565b604052919050565b600082601f830112610eb957600080fd5b813567ffffffffffffffff811115610ed357610ed3610e61565b610ee6601f8201601f1916602001610e77565b818152846020838601011115610efb57600080fd5b816020850160208301376000918101602001919091529392505050565b80356001600160a01b0381168114610f2f57600080fd5b919050565b806101008101831015610f4657600080fd5b92915050565b6000806000806000806000806101e0898b031215610f6957600080fd5b88359750602089013567ffffffffffffffff80821115610f8857600080fd5b610f948c838d01610ea8565b985060408b0135915080821115610faa57600080fd5b50610fb78b828c01610ea8565b9650506060890135945060808901359350610fd460a08a01610f18565b925060c08901359150610fea8a60e08b01610f34565b90509295985092959890939650565b600080600080600060a0868803121561101157600080fd5b85359450602086013567ffffffffffffffff8082111561103057600080fd5b61103c89838a01610ea8565b95506040880135945060608801359350608088013591508082111561106057600080fd5b5061106d88828901610ea8565b9150509295509295909350565b600080600080610160858703121561109157600080fd5b843593506110a160208601610f18565b9250604085013591506110b78660608701610f34565b905092959194509250565b600080604083850312156110d557600080fd5b82359150602083013567ffffffffffffffff8111156110f357600080fd5b6110ff85828601610ea8565b9150509250929050565b6000806000806000610180868803121561112257600080fd5b8535945061113260208701610f18565b935061114060408701610f18565b9250606086013591506111568760808801610f34565b90509295509295909350565b6000806040838503121561117557600080fd5b8235915060208084013567ffffffffffffffff8082111561119557600080fd5b818601915086601f8301126111a957600080fd5b8135818111156111bb576111bb610e61565b8060051b91506111cc848301610e77565b81815291830184019184810190898411156111e657600080fd5b938501935b8385101561120b576111fc85610f18565b825293850193908501906111eb565b8096505050505050509250929050565b600181811c9082168061122f57607f821691505b60208210810361056657634e487b7160e01b600052602260045260246000fd5b60208082526024908201527f7265636f726420646f6573206e6f7420657869737420666f72207468652077616040820152631b1b195d60e21b606082015260800190565b601f8211156112dd57600081815260208120601f850160051c810160208610156112ba5750805b601f850160051c820191505b818110156112d9578281556001016112c6565b5050505b505050565b815167ffffffffffffffff8111156112fc576112fc610e61565b6113108161130a845461121b565b84611293565b602080601f831160018114611345576000841561132d5750858301515b600019600386901b1c1916600185901b1785556112d9565b600085815260208120601f198616915b8281101561137457888601518255948401946001909101908401611355565b50858210156113925787850151600019600388901b60f8161c191681555b5050505050600190811b01905550565b60208082526029908201527f43616c6c6572206973206e6f74206120636f6e7472696275746f72206f6620746040820152681a19481c9958dbdc9960ba1b606082015260800190565b634e487b7160e01b600052603260045260246000fd5b60006001820161142157634e487b7160e01b600052601160045260246000fd5b5060010190565b60006101a0820190508782528660208301528560408301528460608301528360808301526101008360a0840137979650505050505050565b60008251611472818460208701610c9d565b919091019291505056fea264697066735822122049367c14dc117a599c9c76b348851101125da1c7ad78492f5e67e867ac61e30764736f6c63430008110033",
  "linkReferences": {},
  "deployedLinkReferences": {}
}