{
  "_format": "hh-sol-artifact-1",
  "contractName": "MedicalRecords",
  "sourceName": "contracts/MedicalRecord.sol",
  "abi": [
    {
      "inputs": [],
      "stateMutability": "nonpayable",
      "type": "constructor"
    },
    {
      "inputs": [
        {
          "internalType": "address",
          "name": "contributor",
          "type": "address"
        }
      ],
      "name": "addContributor",
      "outputs": [],
      "stateMutability": "nonpayable",
      "type": "function"
    },
    {
      "inputs": [
        {
          "internalType": "string",
          "name": "image",
          "type": "string"
        }
      ],
      "name": "addImage",
      "outputs": [],
      "stateMutability": "nonpayable",
      "type": "function"
    },
    {
      "inputs": [
        {
          "internalType": "string",
          "name": "uuid",
          "type": "string"
        },
        {
          "internalType": "int256",
          "name": "age",
          "type": "int256"
        },
        {
          "internalType": "string",
          "name": "birthday",
          "type": "string"
        },
        {
          "internalType": "int256",
          "name": "heightCM",
          "type": "int256"
        },
        {
          "internalType": "int256",
          "name": "weightKG",
          "type": "int256"
        }
      ],
      "name": "createRecord",
      "outputs": [],
      "stateMutability": "nonpayable",
      "type": "function"
    },
    {
      "inputs": [],
      "name": "getRecord",
      "outputs": [
        {
          "components": [
            {
              "internalType": "string",
              "name": "id",
              "type": "string"
            },
            {
              "internalType": "address",
              "name": "patient",
              "type": "address"
            },
            {
              "internalType": "int256",
              "name": "age",
              "type": "int256"
            },
            {
              "internalType": "string",
              "name": "birthday",
              "type": "string"
            },
            {
              "internalType": "address[]",
              "name": "owners",
              "type": "address[]"
            },
            {
              "internalType": "int256",
              "name": "heightCM",
              "type": "int256"
            },
            {
              "internalType": "int256",
              "name": "weightKG",
              "type": "int256"
            },
            {
              "internalType": "string",
              "name": "info",
              "type": "string"
            },
            {
              "internalType": "string[]",
              "name": "images",
              "type": "string[]"
            }
          ],
          "internalType": "struct MedicalRecords.record",
          "name": "",
          "type": "tuple"
        }
      ],
      "stateMutability": "view",
      "type": "function"
    },
    {
      "inputs": [],
      "name": "hasRecord",
      "outputs": [
        {
          "internalType": "bool",
          "name": "",
          "type": "bool"
        }
      ],
      "stateMutability": "view",
      "type": "function"
    },
    {
      "inputs": [
        {
          "internalType": "address",
          "name": "_address",
          "type": "address"
        }
      ],
      "name": "isContributor",
      "outputs": [
        {
          "internalType": "bool",
          "name": "",
          "type": "bool"
        }
      ],
      "stateMutability": "view",
      "type": "function"
    },
    {
      "inputs": [
        {
          "internalType": "address",
          "name": "contributor",
          "type": "address"
        }
      ],
      "name": "removeContributor",
      "outputs": [],
      "stateMutability": "nonpayable",
      "type": "function"
    },
    {
      "inputs": [
        {
          "internalType": "int256",
          "name": "newAge",
          "type": "int256"
        }
      ],
      "name": "updateAge",
      "outputs": [],
      "stateMutability": "nonpayable",
      "type": "function"
    },
    {
      "inputs": [
        {
          "internalType": "string",
          "name": "newBirthday",
          "type": "string"
        }
      ],
      "name": "updateBirthday",
      "outputs": [],
      "stateMutability": "nonpayable",
      "type": "function"
    },
    {
      "inputs": [
        {
          "internalType": "int256",
          "name": "newHeightCM",
          "type": "int256"
        }
      ],
      "name": "updateHeight",
      "outputs": [],
      "stateMutability": "nonpayable",
      "type": "function"
    },
    {
      "inputs": [
        {
          "internalType": "string",
          "name": "newInfo",
          "type": "string"
        }
      ],
      "name": "updateInfo",
      "outputs": [],
      "stateMutability": "nonpayable",
      "type": "function"
    },
    {
      "inputs": [
        {
          "internalType": "int256",
          "name": "newWeightKG",
          "type": "int256"
        }
      ],
      "name": "updateWeight",
      "outputs": [],
      "stateMutability": "nonpayable",
      "type": "function"
    }
  ],
  "bytecode": "0x608060405234801561001057600080fd5b50611489806100206000396000f3fe608060405234801561001057600080fd5b50600436106100b45760003560e01c8063ab29511b11610071578063ab29511b14610142578063b3f3ab5c14610155578063b579184f14610168578063f0f0ed6c1461017b578063f18ad6fb1461019e578063f3f24762146101b357600080fd5b8063166f1779146100b95780631d0d35f5146100ce578063391cda59146100f657806364fab6b4146101095780639c2f7eb41461011c5780639c6ca0f91461012f575b600080fd5b6100cc6100c7366004610f0b565b6101c6565b005b6100e16100dc366004610f48565b61025e565b60405190151581526020015b60405180910390f35b6100cc610104366004610f0b565b610362565b6100cc610117366004610f78565b6103dc565b6100cc61012a366004610f78565b610451565b6100cc61013d366004610f91565b6104c6565b6100cc610150366004610f0b565b610644565b6100cc610163366004610f48565b6106be565b6100cc610176366004610f48565b610879565b336000908152602081905260409020600101546001600160a01b031615156100e1565b6101a66108f4565b6040516100ed91906110ef565b6100cc6101c1366004610f78565b610c7c565b336101d08161025e565b6101f55760405162461bcd60e51b81526004016101ec906111c7565b60405180910390fd5b336000818152602081905260409020600101546001600160a01b031661022d5760405162461bcd60e51b81526004016101ec90611210565b336000818152602081815260408220600801805460018101825590835291200161025785826112d8565b5050505050565b336000818152602081905260408120600101549091906001600160a01b03166102995760405162461bcd60e51b81526004016101ec90611210565b336000818152602081905260409020600101546001600160a01b03168190036102c657600192505061035c565b60005b6001600160a01b038216600090815260208190526040902060040154811015610355576001600160a01b0382811660009081526020819052604090206004018054918716918390811061031e5761031e611398565b6000918252602090912001546001600160a01b0316036103435760019350505061035c565b8061034d816113c4565b9150506102c9565b5060009250505b50919050565b3361036c8161025e565b6103885760405162461bcd60e51b81526004016101ec906111c7565b336000818152602081905260409020600101546001600160a01b03166103c05760405162461bcd60e51b81526004016101ec90611210565b33600081815260208190526040902060030161025785826112d8565b336103e68161025e565b6104025760405162461bcd60e51b81526004016101ec906111c7565b336000818152602081905260409020600101546001600160a01b031661043a5760405162461bcd60e51b81526004016101ec90611210565b505033600090815260208190526040902060060155565b3361045b8161025e565b6104775760405162461bcd60e51b81526004016101ec906111c7565b336000818152602081905260409020600101546001600160a01b03166104af5760405162461bcd60e51b81526004016101ec90611210565b505033600090815260208190526040902060050155565b336000818152602081905260409020600101546001600160a01b03161561053b5760405162461bcd60e51b8152602060048201526024808201527f5265636f726420616c72656164792065786973747320666f7220746865206361604482015263363632b960e11b60648201526084016101ec565b610543610cf1565b8681526001600160a01b038216602080830182905260408084018990526060840188905260a0840187905260c0840186905260009283529082905290208151829190819061059190826112d8565b5060208201516001820180546001600160a01b0319166001600160a01b0390921691909117905560408201516002820155606082015160038201906105d690826112d8565b50608082015180516105f2916004840191602090910190610d46565b5060a0820151600582015560c0820151600682015560e0820151600782019061061b90826112d8565b506101008201518051610638916008840191602090910190610da7565b50505050505050505050565b3361064e8161025e565b61066a5760405162461bcd60e51b81526004016101ec906111c7565b336000818152602081905260409020600101546001600160a01b03166106a25760405162461bcd60e51b81526004016101ec90611210565b33600081815260208190526040902060070161025785826112d8565b336000818152602081905260409020600101546001600160a01b031681146106f85760405162461bcd60e51b81526004016101ec906113dd565b33600081815260208190526040812060040154905b81811015610257576001600160a01b0383811660009081526020819052604090206004018054918716918390811061074757610747611398565b6000918252602090912001546001600160a01b0316036108675761076c600183611424565b8114610816576001600160a01b0383166000908152602081905260409020600401610798600184611424565b815481106107a8576107a8611398565b60009182526020808320909101546001600160a01b0386811684529183905260409092206004018054919092169190839081106107e7576107e7611398565b9060005260206000200160006101000a8154816001600160a01b0302191690836001600160a01b031602179055505b6001600160a01b03831660009081526020819052604090206004018054806108405761084061143d565b600082815260209020810160001990810180546001600160a01b0319169055019055610257565b80610871816113c4565b91505061070d565b336000818152602081905260409020600101546001600160a01b031681146108b35760405162461bcd60e51b81526004016101ec906113dd565b50336000908152602081815260408220600401805460018101825590835291200180546001600160a01b0319166001600160a01b0392909216919091179055565b6108fc610cf1565b336000818152602081905260409020600101546001600160a01b03166109345760405162461bcd60e51b81526004016101ec90611210565b33600081815260208190526040908190208151610120810190925280548290829061095e90611255565b80601f016020809104026020016040519081016040528092919081815260200182805461098a90611255565b80156109d75780601f106109ac576101008083540402835291602001916109d7565b820191906000526020600020905b8154815290600101906020018083116109ba57829003601f168201915b505050918352505060018201546001600160a01b0316602082015260028201546040820152600382018054606090920191610a1190611255565b80601f0160208091040260200160405190810160405280929190818152602001828054610a3d90611255565b8015610a8a5780601f10610a5f57610100808354040283529160200191610a8a565b820191906000526020600020905b815481529060010190602001808311610a6d57829003601f168201915b5050505050815260200160048201805480602002602001604051908101604052809291908181526020018280548015610aec57602002820191906000526020600020905b81546001600160a01b03168152600190910190602001808311610ace575b505050505081526020016005820154815260200160068201548152602001600782018054610b1990611255565b80601f0160208091040260200160405190810160405280929190818152602001828054610b4590611255565b8015610b925780601f10610b6757610100808354040283529160200191610b92565b820191906000526020600020905b815481529060010190602001808311610b7557829003601f168201915b5050505050815260200160088201805480602002602001604051908101604052809291908181526020016000905b82821015610c6c578382906000526020600020018054610bdf90611255565b80601f0160208091040260200160405190810160405280929190818152602001828054610c0b90611255565b8015610c585780601f10610c2d57610100808354040283529160200191610c58565b820191906000526020600020905b815481529060010190602001808311610c3b57829003601f168201915b505050505081526020019060010190610bc0565b50505050815250509250505b5090565b33610c868161025e565b610ca25760405162461bcd60e51b81526004016101ec906111c7565b336000818152602081905260409020600101546001600160a01b0316610cda5760405162461bcd60e51b81526004016101ec90611210565b505033600090815260208190526040902060020155565b6040518061012001604052806060815260200160006001600160a01b03168152602001600081526020016060815260200160608152602001600081526020016000815260200160608152602001606081525090565b828054828255906000526020600020908101928215610d9b579160200282015b82811115610d9b57825182546001600160a01b0319166001600160a01b03909116178255602090920191600190910190610d66565b50610c78929150610df9565b828054828255906000526020600020908101928215610ded579160200282015b82811115610ded5782518290610ddd90826112d8565b5091602001919060010190610dc7565b50610c78929150610e0e565b5b80821115610c785760008155600101610dfa565b80821115610c78576000610e228282610e2b565b50600101610e0e565b508054610e3790611255565b6000825580601f10610e47575050565b601f016020900490600052602060002090810190610e659190610df9565b50565b634e487b7160e01b600052604160045260246000fd5b600082601f830112610e8f57600080fd5b813567ffffffffffffffff80821115610eaa57610eaa610e68565b604051601f8301601f19908116603f01168101908282118183101715610ed257610ed2610e68565b81604052838152866020858801011115610eeb57600080fd5b836020870160208301376000602085830101528094505050505092915050565b600060208284031215610f1d57600080fd5b813567ffffffffffffffff811115610f3457600080fd5b610f4084828501610e7e565b949350505050565b600060208284031215610f5a57600080fd5b81356001600160a01b0381168114610f7157600080fd5b9392505050565b600060208284031215610f8a57600080fd5b5035919050565b600080600080600060a08688031215610fa957600080fd5b853567ffffffffffffffff80821115610fc157600080fd5b610fcd89838a01610e7e565b9650602088013595506040880135915080821115610fea57600080fd5b50610ff788828901610e7e565b9598949750949560608101359550608001359392505050565b6000815180845260005b818110156110365760208185018101518683018201520161101a565b506000602082860101526020601f19601f83011685010191505092915050565b600081518084526020808501945080840160005b8381101561108f5781516001600160a01b03168752958201959082019060010161106a565b509495945050505050565b600081518084526020808501808196508360051b8101915082860160005b858110156110e25782840389526110d0848351611010565b988501989350908401906001016110b8565b5091979650505050505050565b602081526000825161012080602085015261110e610140850183611010565b9150602085015161112a60408601826001600160a01b03169052565b50604085015160608501526060850151601f19808685030160808701526111518483611010565b935060808701519150808685030160a087015261116e8483611056565b935060a087015160c087015260c087015160e087015260e087015191506101008187860301818801526111a18584611010565b9088015187820390920184880152935090506111bd838261109a565b9695505050505050565b60208082526029908201527f43616c6c6572206973206e6f74206120636f6e7472696275746f72206f6620746040820152681a19481c9958dbdc9960ba1b606082015260800190565b60208082526025908201527f5265636f726420646f6573206e6f7420657869737420666f72207468652070616040820152641d1a595b9d60da1b606082015260800190565b600181811c9082168061126957607f821691505b60208210810361035c57634e487b7160e01b600052602260045260246000fd5b601f8211156112d357600081815260208120601f850160051c810160208610156112b05750805b601f850160051c820191505b818110156112cf578281556001016112bc565b5050505b505050565b815167ffffffffffffffff8111156112f2576112f2610e68565b611306816113008454611255565b84611289565b602080601f83116001811461133b57600084156113235750858301515b600019600386901b1c1916600185901b1785556112cf565b600085815260208120601f198616915b8281101561136a5788860151825594840194600190910190840161134b565b50858210156113885787850151600019600388901b60f8161c191681555b5050505050600190811b01905550565b634e487b7160e01b600052603260045260246000fd5b634e487b7160e01b600052601160045260246000fd5b6000600182016113d6576113d66113ae565b5060010190565b60208082526027908201527f43616c6c6572206973206e6f74207468652070617469656e74206f6620746865604082015266081c9958dbdc9960ca1b606082015260800190565b81810381811115611437576114376113ae565b92915050565b634e487b7160e01b600052603160045260246000fdfea264697066735822122022178a26538e5529e6a2010ac330b007887e5dac4052b9066af2ebedaf91b32864736f6c63430008110033",
  "linkReferences": {},
  "deployedLinkReferences": {}
}