{
  "_format": "hh-sol-artifact-1",
  "contractName": "MedicalRecords",
  "sourceName": "contracts/MedicalRecord.sol",
  "abi": [
    {
      "inputs": [
        {
          "internalType": "contract IWorldID",
          "name": "_worldId",
          "type": "address"
        },
        {
          "internalType": "string",
          "name": "_appId",
          "type": "string"
        }
      ],
      "stateMutability": "nonpayable",
      "type": "constructor"
    },
    {
      "inputs": [],
      "name": "InvalidNullifier",
      "type": "error"
    },
    {
      "inputs": [
        {
          "internalType": "uint256",
          "name": "_userHash",
          "type": "uint256"
        },
        {
          "internalType": "string",
          "name": "_image",
          "type": "string"
        }
      ],
      "name": "addImage",
      "outputs": [],
      "stateMutability": "nonpayable",
      "type": "function"
    },
    {
      "inputs": [
        {
          "internalType": "uint256",
          "name": "_userHash",
          "type": "uint256"
        },
        {
          "internalType": "address",
          "name": "_newAddress",
          "type": "address"
        },
        {
          "internalType": "address",
          "name": "_signal",
          "type": "address"
        },
        {
          "internalType": "uint256",
          "name": "_root",
          "type": "uint256"
        },
        {
          "internalType": "uint256[8]",
          "name": "proof",
          "type": "uint256[8]"
        }
      ],
      "name": "changeWallet",
      "outputs": [],
      "stateMutability": "nonpayable",
      "type": "function"
    },
    {
      "inputs": [
        {
          "internalType": "uint256",
          "name": "_userHash",
          "type": "uint256"
        },
        {
          "internalType": "string",
          "name": "_gender",
          "type": "string"
        },
        {
          "internalType": "string",
          "name": "_birthday",
          "type": "string"
        },
        {
          "internalType": "uint256",
          "name": "_heightCM",
          "type": "uint256"
        },
        {
          "internalType": "uint256",
          "name": "_weightKG",
          "type": "uint256"
        },
        {
          "internalType": "address",
          "name": "_signal",
          "type": "address"
        },
        {
          "internalType": "uint256",
          "name": "_root",
          "type": "uint256"
        },
        {
          "internalType": "uint256[8]",
          "name": "_proof",
          "type": "uint256[8]"
        }
      ],
      "name": "createRecord",
      "outputs": [],
      "stateMutability": "nonpayable",
      "type": "function"
    },
    {
      "inputs": [
        {
          "internalType": "uint256",
          "name": "_userHash",
          "type": "uint256"
        }
      ],
      "name": "getRecord",
      "outputs": [
        {
          "components": [
            {
              "internalType": "uint256",
              "name": "userHash",
              "type": "uint256"
            },
            {
              "internalType": "address",
              "name": "ownerWallet",
              "type": "address"
            },
            {
              "internalType": "string",
              "name": "gender",
              "type": "string"
            },
            {
              "internalType": "string",
              "name": "birthday",
              "type": "string"
            },
            {
              "internalType": "uint256",
              "name": "heightCM",
              "type": "uint256"
            },
            {
              "internalType": "uint256",
              "name": "weightKG",
              "type": "uint256"
            },
            {
              "internalType": "address[]",
              "name": "contributors",
              "type": "address[]"
            },
            {
              "internalType": "string",
              "name": "note",
              "type": "string"
            },
            {
              "internalType": "string[]",
              "name": "images",
              "type": "string[]"
            }
          ],
          "internalType": "struct MedicalRecords.record",
          "name": "",
          "type": "tuple"
        }
      ],
      "stateMutability": "view",
      "type": "function"
    },
    {
      "inputs": [
        {
          "internalType": "uint256",
          "name": "_userHash",
          "type": "uint256"
        }
      ],
      "name": "hasRecord",
      "outputs": [
        {
          "internalType": "bool",
          "name": "",
          "type": "bool"
        }
      ],
      "stateMutability": "view",
      "type": "function"
    },
    {
      "inputs": [
        {
          "internalType": "uint256",
          "name": "_userHash",
          "type": "uint256"
        }
      ],
      "name": "isContributor",
      "outputs": [
        {
          "internalType": "bool",
          "name": "",
          "type": "bool"
        }
      ],
      "stateMutability": "view",
      "type": "function"
    },
    {
      "inputs": [
        {
          "internalType": "uint256",
          "name": "_userHash",
          "type": "uint256"
        }
      ],
      "name": "isOwner",
      "outputs": [
        {
          "internalType": "bool",
          "name": "",
          "type": "bool"
        }
      ],
      "stateMutability": "view",
      "type": "function"
    },
    {
      "inputs": [
        {
          "internalType": "uint256",
          "name": "_userHash",
          "type": "uint256"
        },
        {
          "internalType": "string",
          "name": "_gender",
          "type": "string"
        },
        {
          "internalType": "uint256",
          "name": "_heightCM",
          "type": "uint256"
        },
        {
          "internalType": "uint256",
          "name": "_weightKG",
          "type": "uint256"
        },
        {
          "internalType": "string",
          "name": "_note",
          "type": "string"
        }
      ],
      "name": "modifyRecord",
      "outputs": [],
      "stateMutability": "nonpayable",
      "type": "function"
    },
    {
      "inputs": [
        {
          "internalType": "uint256",
          "name": "_userHash",
          "type": "uint256"
        },
        {
          "internalType": "address[]",
          "name": "_contributors",
          "type": "address[]"
        }
      ],
      "name": "setContributors",
      "outputs": [],
      "stateMutability": "nonpayable",
      "type": "function"
    }
  ],
  "bytecode": "0x60e0604052600160c0523480156200001657600080fd5b506040516200154a3803806200154a8339810160408190526200003991620000fd565b6001600160a01b0382166080526040516200007e906200005e908390602001620001d8565b6040516020818303038152906040526200008a60201b620009d21760201c565b60a05250620001f69050565b6000600882604051602001620000a19190620001d8565b60408051601f198184030181529190528051602090910120901c92915050565b634e487b7160e01b600052604160045260246000fd5b60005b83811015620000f4578181015183820152602001620000da565b50506000910152565b600080604083850312156200011157600080fd5b82516001600160a01b03811681146200012957600080fd5b60208401519092506001600160401b03808211156200014757600080fd5b818501915085601f8301126200015c57600080fd5b815181811115620001715762000171620000c1565b604051601f8201601f19908116603f011681019083821181831017156200019c576200019c620000c1565b81604052828152886020848701011115620001b657600080fd5b620001c9836020830160208801620000d7565b80955050505050509250929050565b60008251620001ec818460208701620000d7565b9190910192915050565b60805160a05160c05161132d6200021d60003960005050600050506000505061132d6000f3fe608060405234801561001057600080fd5b50600436106100935760003560e01c8063884b562611610066578063884b5626146101285780639b87c11f1461013b578063ab2258a21461014e578063e5c1bfdf14610161578063ecb2715b1461017457600080fd5b806303e9e609146100985780631d599b7f146100c157806339c7639c1461010057806378c7a45914610113575b600080fd5b6100ab6100a6366004610b82565b610187565b6040516100b89190610c84565b60405180910390f35b6100f06100cf366004610b82565b600090815260016020819052604090912001546001600160a01b0316151590565b60405190151581526020016100b8565b6100f061010e366004610b82565b610506565b610126610121366004610e47565b610575565b005b610126610136366004610ef4565b610702565b6100f0610149366004610b82565b610776565b61012661015c366004610f75565b610848565b61012661016f366004610fbc565b61089e565b610126610182366004611015565b610941565b61018f610a07565b8161019981610776565b6101be5760405162461bcd60e51b81526004016101b5906110ce565b60405180910390fd5b60008381526001602081815260409283902083516101208101855281548152928101546001600160a01b031691830191909152600281018054929391929184019161020890611117565b80601f016020809104026020016040519081016040528092919081815260200182805461023490611117565b80156102815780601f1061025657610100808354040283529160200191610281565b820191906000526020600020905b81548152906001019060200180831161026457829003601f168201915b5050505050815260200160038201805461029a90611117565b80601f01602080910402602001604051908101604052809291908181526020018280546102c690611117565b80156103135780601f106102e857610100808354040283529160200191610313565b820191906000526020600020905b8154815290600101906020018083116102f657829003601f168201915b5050505050815260200160048201548152602001600582015481526020016006820180548060200260200160405190810160405280929190818152602001828054801561038957602002820191906000526020600020905b81546001600160a01b0316815260019091019060200180831161036b575b505050505081526020016007820180546103a290611117565b80601f01602080910402602001604051908101604052809291908181526020018280546103ce90611117565b801561041b5780601f106103f05761010080835404028352916020019161041b565b820191906000526020600020905b8154815290600101906020018083116103fe57829003601f168201915b5050505050815260200160088201805480602002602001604051908101604052809291908181526020016000905b828210156104f557838290600052602060002001805461046890611117565b80601f016020809104026020016040519081016040528092919081815260200182805461049490611117565b80156104e15780601f106104b6576101008083540402835291602001916104e1565b820191906000526020600020905b8154815290600101906020018083116104c457829003601f168201915b505050505081526020019060010190610449565b505050508152505091505b50919050565b60008181526001602081905260408220015482906001600160a01b031661053f5760405162461bcd60e51b81526004016101b59061114b565b60008381526001602081905260409091200154336001600160a01b039091160361056c5760019150610500565b50600092915050565b6000888152600160208190526040909120015433906001600160a01b0316156105ec5760405162461bcd60e51b8152602060048201526024808201527f7265636f726420616c72656164792065786973747320666f7220746865206361604482015263363632b960e11b60648201526084016101b5565b6105f4610a07565b8981526001600160a01b03828116602080840191825260408085018d8152606086018d9052608086018c905260a086018b905281518084018352600080825260e08801919091528f81526001938490529190912085518155925191830180546001600160a01b03191692909416919091179092559051829190600282019061067c90826111de565b506060820151600382019061069190826111de565b506080820151600482015560a0820151600582015560c082015180516106c1916006840191602090910190610a5c565b5060e082015160078201906106d690826111de565b5061010082015180516106f3916008840191602090910190610ac1565b50505050505050505050505050565b8461070c81610776565b6107285760405162461bcd60e51b81526004016101b5906110ce565b600086815260016020526040902060020161074386826111de565b506000868152600160205260409020600481018590556005810184905560070161076d83826111de565b50505050505050565b60008181526001602081905260408220015482906001600160a01b03166107af5760405162461bcd60e51b81526004016101b59061114b565b6107b883610506565b156107c65760019150610500565b60005b60008481526001602052604090206006015481101561083e5760008481526001602052604090206006018054339190839081106108085761080861129e565b6000918252602090912001546001600160a01b03160361082c576001925050610500565b80610836816112b4565b9150506107c9565b5060009392505050565b8161085281610776565b61086e5760405162461bcd60e51b81526004016101b5906110ce565b600083815260016020818152604083206008018054928301815583529091200161089883826111de565b50505050565b6000858152600160208190526040909120015485906001600160a01b0316331461090a5760405162461bcd60e51b815260206004820152601e60248201527f43616c6c6572206973206e6f7420746865207265636f7264206f776e6572000060448201526064016101b5565b50505060009283525060016020819052604090922090910180546001600160a01b0319166001600160a01b03909216919091179055565b6000828152600160208190526040909120015482906001600160a01b031633146109ad5760405162461bcd60e51b815260206004820152601e60248201527f43616c6c6572206973206e6f7420746865207265636f7264206f776e6572000060448201526064016101b5565b6000838152600160209081526040909120835161089892600690920191850190610a5c565b60006008826040516020016109e791906112db565b60408051601f198184030181529190528051602090910120901c92915050565b6040518061012001604052806000815260200160006001600160a01b03168152602001606081526020016060815260200160008152602001600081526020016060815260200160608152602001606081525090565b828054828255906000526020600020908101928215610ab1579160200282015b82811115610ab157825182546001600160a01b0319166001600160a01b03909116178255602090920191600190910190610a7c565b50610abd929150610b13565b5090565b828054828255906000526020600020908101928215610b07579160200282015b82811115610b075782518290610af790826111de565b5091602001919060010190610ae1565b50610abd929150610b28565b5b80821115610abd5760008155600101610b14565b80821115610abd576000610b3c8282610b45565b50600101610b28565b508054610b5190611117565b6000825580601f10610b61575050565b601f016020900490600052602060002090810190610b7f9190610b13565b50565b600060208284031215610b9457600080fd5b5035919050565b60005b83811015610bb6578181015183820152602001610b9e565b50506000910152565b60008151808452610bd7816020860160208601610b9b565b601f01601f19169290920160200192915050565b600081518084526020808501945080840160005b83811015610c245781516001600160a01b031687529582019590820190600101610bff565b509495945050505050565b600081518084526020808501808196508360051b8101915082860160005b85811015610c77578284038952610c65848351610bbf565b98850198935090840190600101610c4d565b5091979650505050505050565b602081528151602082015260006020830151610cab60408401826001600160a01b03169052565b506040830151610120806060850152610cc8610140850183610bbf565b91506060850151601f1980868503016080870152610ce68483610bbf565b9350608087015160a087015260a087015160c087015260c08701519150808685030160e0870152610d178483610beb565b935060e08701519150610100818786030181880152610d368584610bbf565b908801518782039092018488015293509050610d528382610c2f565b9695505050505050565b634e487b7160e01b600052604160045260246000fd5b604051601f8201601f1916810167ffffffffffffffff81118282101715610d9b57610d9b610d5c565b604052919050565b600082601f830112610db457600080fd5b813567ffffffffffffffff811115610dce57610dce610d5c565b610de1601f8201601f1916602001610d72565b818152846020838601011115610df657600080fd5b816020850160208301376000918101602001919091529392505050565b80356001600160a01b0381168114610e2a57600080fd5b919050565b806101008101831015610e4157600080fd5b92915050565b6000806000806000806000806101e0898b031215610e6457600080fd5b88359750602089013567ffffffffffffffff80821115610e8357600080fd5b610e8f8c838d01610da3565b985060408b0135915080821115610ea557600080fd5b50610eb28b828c01610da3565b9650506060890135945060808901359350610ecf60a08a01610e13565b925060c08901359150610ee58a60e08b01610e2f565b90509295985092959890939650565b600080600080600060a08688031215610f0c57600080fd5b85359450602086013567ffffffffffffffff80821115610f2b57600080fd5b610f3789838a01610da3565b955060408801359450606088013593506080880135915080821115610f5b57600080fd5b50610f6888828901610da3565b9150509295509295909350565b60008060408385031215610f8857600080fd5b82359150602083013567ffffffffffffffff811115610fa657600080fd5b610fb285828601610da3565b9150509250929050565b60008060008060006101808688031215610fd557600080fd5b85359450610fe560208701610e13565b9350610ff360408701610e13565b9250606086013591506110098760808801610e2f565b90509295509295909350565b6000806040838503121561102857600080fd5b8235915060208084013567ffffffffffffffff8082111561104857600080fd5b818601915086601f83011261105c57600080fd5b81358181111561106e5761106e610d5c565b8060051b915061107f848301610d72565b818152918301840191848101908984111561109957600080fd5b938501935b838510156110be576110af85610e13565b8252938501939085019061109e565b8096505050505050509250929050565b60208082526029908201527f43616c6c6572206973206e6f74206120636f6e7472696275746f72206f6620746040820152681a19481c9958dbdc9960ba1b606082015260800190565b600181811c9082168061112b57607f821691505b60208210810361050057634e487b7160e01b600052602260045260246000fd5b60208082526024908201527f7265636f726420646f6573206e6f7420657869737420666f72207468652077616040820152631b1b195d60e21b606082015260800190565b601f8211156111d957600081815260208120601f850160051c810160208610156111b65750805b601f850160051c820191505b818110156111d5578281556001016111c2565b5050505b505050565b815167ffffffffffffffff8111156111f8576111f8610d5c565b61120c816112068454611117565b8461118f565b602080601f83116001811461124157600084156112295750858301515b600019600386901b1c1916600185901b1785556111d5565b600085815260208120601f198616915b8281101561127057888601518255948401946001909101908401611251565b508582101561128e5787850151600019600388901b60f8161c191681555b5050505050600190811b01905550565b634e487b7160e01b600052603260045260246000fd5b6000600182016112d457634e487b7160e01b600052601160045260246000fd5b5060010190565b600082516112ed818460208701610b9b565b919091019291505056fea2646970667358221220f23a5ac8305ef388765ed304dfff0956878540df020620c1453fb994550da42e64736f6c63430008110033",
  "linkReferences": {},
  "deployedLinkReferences": {}
}